:100000000C945E000C9486000C9486000C94860080
:100010000C9486000C9486000C9486000C94AD021F
:100020000C9486000C9486000C9486000C94860038
:100030000C9486000C9486000C9486000C94860028
:100040000C9463020C9486000C942F030C94090307
:100050000C9486000C9486000C9486000C94860008
:100060000C9486000C9486000200000000240027F7
:10007000002A0000000000250028002B00040404D2
:100080000404040404020202020202030303030341
:10009000030102040810204080010204081020011E
:1000A0000204081020000000080002010000030400
:1000B00007000000000000000000740511241FBEAE
:1000C000CFEFD8E0DEBFCDBF11E0A0E0B1E0E6E9C0
:1000D000FBE002C005900D92A631B107D9F721E0EF
:1000E000A6E1B1E001C01D92AD3CB207E1F710E01E
:1000F000CEE5D0E004C02197FE010E94C305CD35B6
:10010000D107C9F70E9461030C94C9050C94000043
:1001100090E0FC01EB55FF4F2491FC01EF56FF4F9F
:100120003491FC01E358FF4FE491EE23C9F0222300
:1001300039F0233001F1A8F4213019F1223029F1EE
:10014000F0E0EE0FFF1FED58FF4FA591B4918FB770
:10015000F894EC91611126C030953E233C938FBFFB
:1001600008952730A9F02830C9F0243049F780914C
:1001700080008F7D03C0809180008F778093800006
:10018000DFCF84B58F7784BDDBCF84B58F7DFBCF88
:100190008091B0008F778093B000D2CF8091B00073
:1001A0008F7DF9CF3E2BDACFCF93DF9390E0FC0128
:1001B000EF56FF4F249183589F4FFC018491882371
:1001C000D1F090E0880F991FFC01E759FF4FA591EE
:1001D000B491FC01ED58FF4FC591D49161110EC04F
:1001E0009FB7F8948C91E22FE0958E238C93288111
:1001F000E223E8839FBFDF91CF9108958FB7F894F2
:10020000EC91E22BEC938FBFF6CF3FB7F89480913F
:10021000C9019091CA01A091CB01B091CC0126B542
:10022000A89B05C02F3F19F00196A11DB11D3FBF2E
:10023000BA2FA92F982F8827BC01CD01620F711DFD
:10024000811D911D42E0660F771F881F991F4A95F7
:10025000D1F708959091000189130BC0E8E6F0E012
:10026000E4919FEF90930001E13049F028F0E230F3
:1002700061F060E00C94880010926E00FACF9091CB
:100280006F009D7F90936F00F4CF909170009D7FE1
:100290009093700091E09093B0009091B100987F9E
:1002A00094609093B1001092B300E3CFAF92BF92ED
:1002B000CF92DF92EF92FF920F931F93CF93DF9332
:1002C0006C017B018B01040F151FEB015E01AE1861
:1002D000BF08C017D10759F06991D601ED91FC9183
:1002E0000190F081E02DC6010995892B79F7C501B0
:1002F000DF91CF911F910F91FF90EF90DF90CF9002
:10030000BF90AF900895FC01538D448D252F30E0B0
:10031000842F90E0821B930B541710F0CF96089512
:1003200001970895FC01918D828D981761F0A28D3F
:10033000AE0FBF2FB11D5D968C91928D9F5F9F7305
:10034000928F90E008958FEF9FEF0895FC01918DBB
:10035000828D981731F0828DE80FF11D858D90E028
:1003600008958FEF9FEF0895FC01918D228D892FC5
:1003700090E0805C9F4F821B91098F7399270895AD
:1003800087E291E00E94B40121E0892B09F420E08A
:10039000822F089580E090E0892B29F00E94C0010F
:1003A00081110C9400000895FC01A48DA80FB92FB1
:1003B000B11DA35ABF4F2C91848D90E001968F738D
:1003C0009927848FA689B7892C93A089B1898C91AC
:1003D000837080648C93938D848D981306C00288FB
:1003E000F389E02D80818F7D80830895EF92FF92C5
:1003F0000F931F93CF93DF93EC0181E0888F9B8D48
:100400008C8D98131AC0E889F989808185FF15C001
:100410009FB7F894EE89FF896083E889F989808124
:100420008370806480839FBF81E090E0DF91CF91F3
:100430001F910F91FF90EF900895F62E0B8D10E015
:100440000F5F1F4F0F731127E02E8C8D8E110CC084
:100450000FB607FCFACFE889F989808185FFF5CFCF
:10046000CE010E94D401F1CFEB8DEC0FFD2FF11DD9
:10047000E35AFF4FF0829FB7F8940B8FEA89FB890C
:1004800080818062CFCFCF93DF93EC01888D88236A
:10049000B9F0AA89BB89E889F9898C9185FD03C0E7
:1004A000808186FD0DC00FB607FCF7CF8C9185FFCC
:1004B000F2CF808185FFEDCFCE010E94D401E9CF3C
:1004C000DF91CF9108951F920F920FB60F921124D2
:1004D0002F933F938F939F93AF93BF938091C501C9
:1004E0009091C601A091C701B091C8013091C4019B
:1004F00023E0230F2D3758F50196A11DB11D209340
:10050000C4018093C5019093C601A093C701B09325
:10051000C8018091C9019091CA01A091CB01B0910D
:10052000CC010196A11DB11D8093C9019093CA0110
:10053000A093CB01B093CC01BF91AF919F918F91CC
:100540003F912F910F900FBE0F901F90189526E8A6
:10055000230F0296A11DB11DD2CF1F920F920FB68D
:100560000F9211242F933F934F935F936F937F9339
:100570008F939F93AF93BF93EF93FF9380911B0152
:1005800090911C01A0911D01B0911E01892B8A2B15
:100590008B2BD1F190911601E0911701F091180188
:1005A00080818927808380911B0190911C01A091FB
:1005B0001D01B0911E01181619061A061B069CF49F
:1005C00080911B0190911C01A0911D01B0911E0111
:1005D0000197A109B10980931B0190931C01A0937D
:1005E0001D01B0931E01FF91EF91BF91AF919F91BB
:1005F0008F917F916F915F914F913F912F910F90CC
:100600000FBE0F901F901895809100010E942A0143
:10061000EACF1F920F920FB60F9211242F933F93A0
:100620004F935F936F937F938F939F93AF93BF93FA
:10063000EF93FF9387E291E00E94D401FF91EF9145
:10064000BF91AF919F918F917F916F915F914F91EA
:100650003F912F910F900FBE0F901F9018951F92F2
:100660000F920FB60F9211242F938F939F93EF93B6
:10067000FF93E0913701F09138018081E0913D01D5
:10068000F0913E0182FD1BC09081809140018F5FFF
:100690008F7320914101821741F0E0914001F0E019
:1006A000E95DFE4F958F80934001FF91EF919F91FF
:1006B0008F912F910F900FBE0F901F9018958081F2
:1006C000F4CFCF93DF93CDB7DEB7A1970FB6F894F1
:1006D000DEBF0FBECDBF789484B5826084BD84B583
:1006E000816084BD85B5826085BD85B5816085BD2D
:1006F00080916E00816080936E00109281008091E5
:10070000810082608093810080918100816080936C
:100710008100809180008160809380008091B10091
:1007200084608093B1008091B00081608093B000BC
:1007300080917A00846080937A0080917A00826050
:1007400080937A0080917A00816080937A00809112
:100750007A00806880937A001092C10060E080E1A6
:100760000E94D40061E086E00E94D40061E087E04E
:100770000E94D400E0913701F091380182E080833B
:10078000E0913301F09134011082E0913501F09154
:1007900036018FEC808310923F01E0913B01F09194
:1007A0003C0186E08083E0913901F0913A0180813B
:1007B00080618083E0913901F0913A018081886005
:1007C0008083E0913901F0913A01808180688083D3
:1007D000E0913901F0913A0180818F7D808343E877
:1007E000242E40E0342ECC24CA94DC2C760122E462
:1007F00020937C0080917A00806480937A008091BD
:100800007A0086FDFCCFA0907800B0907900250199
:100810000B2C000C6608770877FE6BC06DE287E250
:1008200091E00E94F60122273327A90124193509F6
:100830004609570919A28E010F5D1F4FCA01B90160
:100840002AE030E040E050E00E94A105605DF80140
:1008500062938F01211531054105510579F7011585
:10086000110561F001900020E9F73197AF01401BBD
:10087000510BB80187E291E00E94560142E050E03E
:1008800063E171E087E291E00E9456011A141B04B3
:100890000CF022C161E087E00E9488008091000195
:1008A000863009F03EC0E8E6F0E0149117FDDBC0A9
:1008B00061E086E00E94D400112309F4A4C0123044
:1008C00009F0B5C08091B100887F83608093B1004A
:1008D00089EF8093B300C0921B01D0921C01E0927B
:1008E0001D01F0921E018091700082608093700063
:1008F000BAC0A301920119A28E010F5D1F4FCA0158
:10090000B9012AE030E040E050E00E94A105605DBE
:10091000F80162938F01211531054105510579F7E1
:100920009ECF8F3F09F09FC086E080930001E8E6EC
:10093000F0E014911F3F09F496C0113021F150F0FE
:10094000123009F43EC017FD8EC061E086E00E94BF
:10095000D400B5CF14BC15BC84B5826084BD85B508
:10096000816085BDF1018491E82FF0E0EE0FFF1F5B
:10097000ED58FF4F85919491E7E9F0E084918093E1
:100980001A0110E095CF10928000109281008091A2
:1009900081008860809381008091810081608093D4
:1009A0008100F1018491E82FF0E0EE0FFF1FED5878
:1009B000FF4F85919491E7E9F0E0849180931901CC
:1009C00077CF1092B0001092B1008091B000826099
:1009D0008093B0008091B10081608093B100F101FB
:1009E0008491E82FF0E0EE0FFF1FED58FF4F859147
:1009F00094919093180180931701E7E9F0E08491B6
:100A00008093160155CF85B5887F836085BD8CE7BF
:100A100087BDC0922301D0922401E0922501F0927B
:100A2000260180916E00826080936E001CC01130A0
:100A300009F04AC080918100887F816080938100A5
:100A40008FE39FE19093890080938800C0921F01FB
:100A5000D0922001E0922101F092220180916F005A
:100A6000826080936F000E9405012B013C018AE0A7
:100A7000882E912CA12CB12C0E94050164197509B6
:100A800086099709683E734081059105A8F391E0B6
:100A9000891A9108A108B108E8EE4E0EE3E05E1E47
:100AA000611C711C81149104A104B10429F780E038
:100AB00090E0892B09F49BCE0E94C001882309F4A1
:100AC00096CE0E94000093CE123021F01111CBCFB0
:100AD0008FE39ECF8FE3FDCE60E087E00E94880029
:100AE00086E00E942A01BFCFE7E2F1E01382128282
:100AF00088EE93E0A0E0B0E084839583A683B7837B
:100B000085E091E09183808385EC90E095878487F0
:100B100084EC90E09787868780EC90E0918B808BC7
:100B200081EC90E0938B828B82EC90E0958B848BB0
:100B300086EC90E0978B868B118E128E138E148E1E
:100B40000895A1E21A2EAA1BBB1BFD010DC0AA1F0E
:100B5000BB1FEE1FFF1FA217B307E407F50720F026
:100B6000A21BB30BE40BF50B661F771F881F991FA1
:100B70001A9469F760957095809590959B01AC01EA
:100B8000BD01CF010895EE0FFF1F0590F491E02DF8
:060B90000994F894FFCF68
:100B9600FF00000000F601560183014302B40192F2
:060BA60001A6010D0A008A
:00000001FF
