:100000000C9490000C94B8000C94B8000C94D30697
:100010000C94D3060C94D3060C94B8000C94B8003E
:100020000C94B8000C94B8000C94B8000C94B80070
:100030000C94B8000C94B8000C94B8000C94B80060
:100040000C9431060C94B8000C94A1060C947B0619
:100050000C94B8000C94B8000C94B8000C94B80040
:100060000C94B8000C94B8002073746174653A0065
:1000700020766F6C3A00207468726573686F6C64E8
:100080003A006C6576656C3A004446506C6179655F
:1000900072204F4B004446506C61796572206E6F40
:1000A0007420666F756E6400747261636B3A0052FF
:1000B000656C656173656400547269676765726534
:1000C000640000000000240027002A00000000084F
:1000D000000201000003040700000000000000000F
:1000E0000000000023002600290000000000250079
:1000F00028002B0004040404040404040202020285
:1001000002020303030303030102040810204080DA
:100110000102040810200102040810204B079A0A6B
:1001200011241FBECFEFD8E0DEBFCDBF11E0A0E0AD
:10013000B1E0EEEAF7E102C005900D92A633B107F7
:10014000D9F722E0A6E3B1E001C01D92A637B207BD
:10015000E1F710E0CFE8D0E004C02197FE010E9453
:10016000BD0BCE38D107C9F70E9413080C94CA0BF7
:100170000C94000090E0FC01E453FF4F2491FC013B
:10018000E85FFE4F3491FC01EC50FF4FE491EE2309
:10019000C9F0222339F0233001F1A8F4213019F1FC
:1001A000223029F1F0E0EE0FFF1FE651FF4FA5913D
:1001B000B4918FB7F894EC91611126C030953E232D
:1001C0003C938FBF08952730A9F02830C9F0243020
:1001D00049F7809180008F7D03C0809180008F77E8
:1001E00080938000DFCF84B58F7784BDDBCF84B56B
:1001F0008F7DFBCF8091B0008F778093B000D2CFFE
:100200008091B0008F7DF9CF3E2BDACFCF93DF9373
:1002100090E0FC01E85FFE4F24918C509F4FFC0161
:1002200084918823D1F090E0880F991FFC01EE5350
:10023000FF4FA591B491FC01E651FF4FC591D491B8
:1002400061110EC09FB7F8948C91E22FE0958E2338
:100250008C932881E223E8839FBFDF91CF9108959B
:100260008FB7F894EC91E22BEC938FBFF6CF8E50C2
:10027000806480937C0080917A00806480937A000F
:1002800080917A0086FDFCCF809178009091790072
:1002900008953FB7F8948091900190919101A091B9
:1002A0009201B091930126B5A89B05C02F3F19F08C
:1002B0000196A11DB11D3FBFBA2FA92F982F8827E6
:1002C000BC01CD01620F711D811D911D42E0660FC1
:1002D000771F881F991F4A95D1F708958F929F9293
:1002E000AF92BF92CF92DF92EF92FF926B017C01AF
:1002F0000E9449014B015C01C114D104E104F104E5
:10030000B9F00E944901681979098A099B09683E78
:1003100073408105910580F321E0C21AD108E108FC
:10032000F10888EE880E83E0981EA11CB11CE4CF72
:10033000FF90EF90DF90CF90BF90AF909F908F9005
:1003400008952FB7F89460918C0170918D01809180
:100350008E0190918F012FBF08952F923F924F925F
:100360005F926F927F928F929F92AF92BF92CF9245
:10037000DF92EF92FF920F931F93CF93DF936B0166
:100380007C010E94A1014B015C01C114D104E10474
:10039000F10441F4C0903702D0903802E090390265
:1003A000F0903A02C1E046E0242E53E0352E68E09A
:1003B000462E72E0572EE7E06E2EFAE07F2E04E024
:1003C000D9E015E08091310290913202DC01ED918B
:1003D000FC910084F185E02D0995892B09F4BAC0C0
:1003E00060E070E0CB010E946E0120914F0280918D
:1003F000310290913202DC01ED91FC910284F3858F
:10040000E02D21110BC0099580933B028E37D1F668
:1004100080914F028F5F80934F02D4CF09959091C6
:100420004F02E92FF0E0EF5CFD4F8287923069F1D7
:10043000993089F1913059F58F3F49F110924F026F
:10044000C09351021092540210925302C09355026D
:10045000109256020E94A101681979098A099B0924
:10046000C616D706E806F90608F0C1C010924F027A
:1004700010925102109254021092530281E0809324
:1004800055021092560280E06AC08630B9F69F5F2E
:1004900090934F0297CF8F3E89F6E0913E02809174
:1004A000400290E04091410250E06091420270E0D1
:1004B000762F662720914302620F711D20913D0225
:1004C0002E0F3327331FF0913F022F0F311D280FBE
:1004D000391F240F351FF0913C022F0F311D31952C
:1004E000219531096217730709F0A8CF10924F02C6
:1004F000E13419F4109256022DC0E0935202982F65
:100500008827480F591F5093540240935302EA53CF
:10051000E63108F063C0F0E0E057FD4F0C94BD0BEE
:10052000D302DD02A602A602EA02C202E702EE023E
:10053000EA02EA02EA02EA02EA02EA02EA02EA025B
:10054000EE02EA02EA02EA02EA02EA021093510229
:10055000C093550280915502882309F47BCFDF9127
:10056000CF911F910F91FF90EF90DF90CF90BF90B0
:10057000AF909F908F907F906F905F904F903F9043
:100580002F90089540FF03C0D0935102E1CF41FF67
:1005900003C000935102DCCF43705527452BD1F2A5
:1005A00070925102D5CF40FF03C060925102D0CF6C
:1005B00041FFD0CF50925102CBCF40FF03C04092B9
:1005C0005102C6CF41FFC6CF30925102C1CF209217
:1005D0005102BECFBBE0B0935102BACFC0935102DB
:1005E0001092540210925302C093550283CF60E0E0
:1005F00070E0CB010E946E01E5CE80934802272F68
:1006000030E070934A0260934B0240914702909110
:100610004602490F5527551F840F952F911D409174
:100620004902840F911D820F931F680F792F711D4E
:1006300071956195710970934C0260934D0244234A
:1006400079F080915602882359F060E070E0CB0188
:100650000E946E0160E070E0CB010E94AD01F1CF1D
:100660008091310290913202DC01ED91FC91028087
:10067000F381E02D4AE050E065E472E009950E94C4
:10068000A1016093330270933402809335029093FA
:1006900036028091490291E0811101C090E090936F
:1006A0005602811106C06AE070E080E090E00C9490
:1006B0006E010895AF92BF92CF92DF92EF92FF92B8
:1006C0000F931F93CF93DF936C017B018B01040F7A
:1006D000151FEB015E01AE18BF08C017D10759F016
:1006E0006991D601ED91FC910190F081E02DC60158
:1006F0000995892B79F7C501DF91CF911F910F9152
:10070000FF90EF90DF90CF90BF90AF900895FC01E5
:10071000538D448D252F30E0842F90E0821B930B66
:10072000541710F0CF96089501970895FC01918D0C
:10073000828D981761F0A28DAE0FBF2FB11D5D960F
:100740008C91928D9F5F9F73928F90E008958FEFB1
:100750009FEF0895FC01918D828D981731F0828D65
:10076000E80FF11D858D90E008958FEF9FEF0895BC
:10077000FC01918D228D892F90E0805C9F4F821B20
:1007800091098F739927089584E991E00E94B80335
:1007900021E0892B09F420E0822F089580E090E089
:1007A000892B29F00E94C40381110C940000089544
:1007B000FC01A48DA80FB92FB11DA35ABF4F2C91D6
:1007C000848D90E001968F739927848FA689B789CD
:1007D0002C93A089B1898C91837080648C93938DC4
:1007E000848D981306C00288F389E02D80818F7D67
:1007F00080830895EF92FF920F931F93CF93DF931F
:10080000EC0181E0888F9B8D8C8D98131AC0E8894C
:10081000F989808185FF15C09FB7F894EE89FF891B
:100820006083E889F98980818370806480839FBFB9
:1008300081E090E0DF91CF911F910F91FF90EF90B9
:100840000895F62E0B8D10E00F5F1F4F0F731127C9
:10085000E02E8C8D8E110CC00FB607FCFACFE88904
:10086000F989808185FFF5CFCE010E94D803F1CFB1
:10087000EB8DEC0FFD2FF11DE35AFF4FF0829FB778
:10088000F8940B8FEA89FB8980818062CFCF0F9328
:100890001F93CF93DF938C01D0E0C0E0F801EC0F01
:1008A000FD1F6491662341F084E991E00E94FA0300
:1008B000892B11F02196F2CFCE01DF91CF911F91BC
:1008C0000F910895CF93DF93EC01888D8823B9F0C1
:1008D000AA89BB89E889F9898C9185FD03C080814B
:1008E00086FD0DC00FB607FCF7CF8C9185FFF2CFC8
:1008F000808185FFEDCFCE010E94D803E9CFDF9143
:10090000CF91089520917801309179012817390706
:1009100071F49091760180917701981741F0E09100
:100920007601F0E0EA5CFE4F808190E008958FEF61
:100930009FEF08950895EF92FF920F931F93CF9327
:10094000DF93DC015C96ED90FC905D97E114F1047F
:1009500079F481E090E013969C938E93129790E047
:1009600080E0DF91CF911F910F91FF90EF9008955C
:100970005196ED91FC91529750968C915097982FEB
:1009800090950FB75E962C915E97122F127021FDF5
:100990006095F8942081112319F1282B2083E70119
:1009A0002197F1F728E0462F50E0308160FF1AC010
:1009B000382B3083E7012197F1F7BA0175956795D8
:1009C000215089F7112381F08081892380830FBF13
:1009D0005C968D919C910197F1F781E090E0C1CFF9
:1009E0002923DCCF3923E5CF9081892BEFCF2091CC
:1009F0007801309179012817390761F480917701E6
:100A00002091760190E0805C9F4F821B91098F734B
:100A10009927089590E080E0089520917801309121
:100A2000790128173907B9F49091760180917701FF
:100A3000981789F0E0917601F0E0EA5CFE4F808142
:100A40002091760130E02F5F3F4F2F7333272093A3
:100A5000760190E008958FEF9FEF089590E080E099
:100A60000895CF92DF92EF92FF920F931F93CF934F
:100A7000DF930E94A1016B017C01CFEFD3E010E076
:100A800000E00E94A1016C197D098E099F096E3159
:100A900071058105910560F480E10E943701081716
:100AA00019070CF48C018C179D075CF7EC01E9CF5A
:100AB000C8018C1B9D0BDF91CF911F910F91FF906F
:100AC000EF90DF90CF9008958F929F92AF92BF9258
:100AD0000F931F93CF93DF93CDB7DEB7A1970FB6D8
:100AE000F894DEBF0FBECDBF19A2423008F44AE031
:100AF0008E010F5D1F4F842E912CB12CA12CA501CE
:100B000094010E948C0BE62FB901CA01EA3044F52A
:100B1000E05DD801EE938D01232B242B252B79F753
:100B200090E080E0109769F0FD0101900020E9F766
:100B30003197AF014A1B5B0BBD0184E991E00E9434
:100B40005A03A1960FB6F894DEBF0FBECDBFDF915A
:100B5000CF911F910F91BF90AF909F908F9008956C
:100B6000E95CD7CFCF92DF92EF92FF92CF93DF93E2
:100B70006B017C016DE284E991E00E94FA03EC01D3
:100B800066277727CB016C197D098E099F094AE0FA
:100B90000E9464058C0F9D1FDF91CF91FF90EF9015
:100BA000DF90CF900895BC01990F880B990B97FDAA
:100BB0000C94B2054AE00C94640542E050E062E314
:100BC00071E084E991E00C945A03CF93DF930E9483
:100BD0004704EC010E94DD058C0F9D1FDF91CF9132
:100BE0000895CF93DF93BC01990F880B990B97FF62
:100BF0000AC00E94B205EC010E94DD058C0F9D1F0A
:100C0000DF91CF9108954AE00E946405F4CF0F93DD
:100C10001F93CF93DF938C01EB0182E890E00E9459
:100C20004704C8010E94D30586E790E00E9447046C
:100C300084E690E00E94D30580E790E00E9447049C
:100C400080917A0190917B010E94D30588E690E023
:100C50000E944704CE01DF91CF911F910F910C9418
:100C6000F1051F920F920FB60F9211242F933F930D
:100C70008F939F93AF93BF9380918C0190918D013F
:100C8000A0918E01B0918F0130918B0123E0230F51
:100C90002D3758F50196A11DB11D20938B0180932E
:100CA0008C0190938D01A0938E01B0938F01809160
:100CB000900190919101A0919201B09193010196C0
:100CC000A11DB11D8093900190939101A093920179
:100CD000B0939301BF91AF919F918F913F912F91CD
:100CE0000F900FBE0F901F90189526E8230F0296C5
:100CF000A11DB11DD2CF1F920F920FB60F921124DA
:100D00002F933F934F935F936F937F938F939F9313
:100D1000AF93BF93EF93FF9384E991E00E94D803D0
:100D2000FF91EF91BF91AF919F918F917F916F91C3
:100D30005F914F913F912F910F900FBE0F901F9099
:100D400018951F920F920FB60F9211242F938F9325
:100D50009F93EF93FF93E091A401F091A50180810F
:100D6000E091AA01F091AB0182FD1BC090818091BE
:100D7000AD018F5F8F732091AE01821741F0E0913A
:100D8000AD01F0E0EC56FE4F958F8093AD01FF91E1
:100D9000EF919F918F912F910F900FBE0F901F9009
:100DA00018958081F4CF1F920F920FB60F921124E5
:100DB0002F933F934F935F936F937F938F939F9363
:100DC000AF93BF93EF93FF93E0917801F091790196
:100DD000309749F0A685B7858585968D91FF14C01B
:100DE0009C918923A1F4FF91EF91BF91AF919F91C5
:100DF0008F917F916F915F914F913F912F910F90C4
:100E00000FBE0F901F9018959C91892361F7A389BD
:100E1000B4899C918589809589238C93868997894B
:100E20000197F1F7608D718DA685B785558538E0FE
:100E300020E0CB010197F1F7822F90E095958795FF
:100E4000282F4C91452309F02068315091F7868D69
:100E500081FD20958091770190E001968F7399270D
:100E600030917601381799F0A0917701B0E0AA5C33
:100E7000BE4F2C9380937701828D938D0197F1F76C
:100E8000A389B4898C919589892B8C93ACCF868D5D
:100E90008160868FF1CF109297011092960188EEB3
:100EA00093E0A0E0B0E08093980190939901A09323
:100EB0009A01B0939B0122E131E030939501209398
:100EC000940125EC30E03093A1012093A00124ECA3
:100ED00030E03093A3012093A20120EC30E0309366
:100EE000A5012093A40121EC30E03093A7012093C9
:100EF000A60122EC30E03093A9012093A80126EC52
:100F000030E03093AB012093AA011092AD01109212
:100F1000AE011092AF011092B00110925A021092DD
:100F2000590280935B0290935C02A0935D02B093A0
:100F30005E0284E291E090935802809357021092EF
:100F40006E0210926D021092700210926F02109257
:100F500072021092710210927402109273026091E8
:100F600075026E7F6D7F609375026695617081E09A
:100F7000682783E00E94BA0061E083E00E940601D6
:100F8000EBE0F1E0E491E0936702E7EFF0E0E49159
:100F9000F0E0EE0FFF1FE651FF4F85919491909383
:100FA00069028093680260E082E00E9406018091FD
:100FB000750281FD04C061E082E00E94BA0082E017
:100FC00080936302EAE0F1E0E491E0936402E6EFEB
:100FD000F0E0E491F0E0EE0FFF1FE052FF4F2591AB
:100FE0003491309366022093650244EF51E060E053
:100FF00070E0409337025093380260933902709347
:101000003A029AE0E4E0F1E0A5E4B2E001900D924A
:101010009A95E1F710924F02809350021092550278
:10102000109256020895789484B5826084BD84B588
:10103000816084BD85B5826085BD85B5816085BDD3
:1010400080916E00816080936E001092810080918B
:101050008100826080938100809181008160809313
:101060008100809180008160809380008091B10038
:1010700084608093B1008091B00081608093B00063
:1010800080917A00846080937A0080917A008260F7
:1010900080937A0080917A00816080937A008091B9
:1010A0007A00806880937A001092C10061E084E049
:1010B0000E940601E091A401F091A50182E08083E5
:1010C000E091A001F091A1011082E091A201F091C4
:1010D000A3018FEC80831092AC01E091A801F09104
:1010E000A90186E08083E091A601F091A7018081AB
:1010F00080618083E091A601F091A70180818860E2
:101100008083E091A601F091A701808180688083AF
:10111000E091A601F091A70180818F7D808380E11D
:101120000E943701BC01990F880B990B611571055D
:101130008105910511F00E94510B109272021092DC
:1011400071021092700210926F0210926E02109251
:101150006D028DE991E090937402809373029091F7
:101160006302963108F047C02DEB30E030936E02F9
:1011700020936D022BE931E03093700220936F02CF
:101180002CE231E0309372022093710220916800CA
:1011900084E0983048F031E09E3008F430E081E09F
:1011A00001C0880F3A95EAF7822B809368002DE6FC
:1011B00030E0983050F02BE630E09E3030F02CE6F6
:1011C00030E0963110F030E020E030936B02209355
:1011D0006A02292F30E0983008F0A0C081E001C0F9
:1011E000880F9A95EAF780936C0280917302909130
:1011F00074020197F1F78091710290917202892B2C
:1012000049F1E0917801F091790122E0E735F207A8
:1012100009F1309739F0A389B4899C91858980952B
:1012200089238C93809175028E7F80937502109232
:1012300077011092760187E592E09093790180938F
:101240007801E0916A02F0916B02808190916C02CA
:10125000892B808368EE73E080E090E00E946E014D
:1012600087E592E0909332028093310281E080938F
:10127000490270E060E08CE00E94FD0260ED77E0E2
:1012800080E090E00E94AD0168EC70E080E090E0CA
:101290000E946E011092550280915102843009F42F
:1012A0004AC0893009F447C085E990E00E94E5050D
:1012B00088248A9483E0982EA12CB12C96E0492EA4
:1012C000512C612C712C00E010E03324339422E087
:1012D000222E0E943105EC0180918A01811148C0C3
:1012E000C536D10564F030928A010E94A101609355
:1012F000860170938701809388019093890170E043
:1013000060E0CE010E9407060115110511F30E944D
:10131000C4038823F1F20E940000DBCF9E3040F42A
:101320002850310981E001C0880F2A95EAF75BCF88
:101330002E503109F7CF8EE00E9437012EE130E0C8
:10134000DC010E94C30B2FEF33E040E050E00E942D
:101350005A0B20937A0130937B01622F70E086E074
:101360000E94FD0281E08093800189E890E09ECF99
:10137000813061F5C536D1052CF410928A0161E007
:1013800070E0BFCF0E94A101C0908601D09087017C
:10139000E0908801F09089016C197D098E099F0900
:1013A000623371058105910550F320928A011092F4
:1013B0008201109283011092840110928501109293
:1013C000810188EB90E00E94E505D9CF823009F0D9
:1013D0009BCF809180018823E9F08091810188234F
:1013E00009F462C00E94A101C0907C01D0907D01EF
:1013F000E0907E01F0907F016C197D098E099F09B4
:10140000683B7B408105910508F040C061E084E0C5
:101410000E94BA0062E070E074CF809182019091E6
:101420008301A0918401B0918501892B8A2B8B2B9C
:1014300051F40E94A1016093820170938301809313
:101440008401909385010E94A101C0908201D090F7
:101450008301E0908401F09085016C197D098E096B
:101460009F096835724081059105A0F270E060E047
:1014700086E10E94FD0260E084E00E94BA001092C2
:101480008A018FEA90E00E94E505C4CF70E060E039
:1014900086E10E94FD0260E084E00E94BA001092A2
:1014A00081010E943105EC01C536D1050CF4B5CFA0
:1014B0001092820110928301109284011092850192
:1014C0008EE00E9437012EE130E0DC010E94C30B68
:1014D000A50194010E945A0B20937A0130937B015D
:1014E000622F70E086E00E94FD020E94020BA301C1
:1014F00092010E945A0B6B017C012FEFC21AD20A93
:10150000E20AF20A88EA90E00E944704C6010E94BB
:10151000F105B60182E10E94FD020E94A1016093E3
:101520007C0170937D0180937E0190937F013092C6
:1015300081016CCF84E291E090935802809357022E
:1015400080917801909179018755924071F4E091F2
:101550006A02F0916B02908180916C0280958923E0
:101560008083109279011092780108958F929F9252
:10157000AF92BF92CF92DF92EF92FF92CF93DF9321
:10158000EC01688179818A819B81611571058105F2
:10159000910521F464E279ED8BE597E02DE133EFDD
:1015A00041E050E00E945A0B49015A019B01AC01F5
:1015B000A7EAB1E40E94790B6B017C01ACEEB4EFB9
:1015C000A50194010E94870BC60ED71EE81EF91EC6
:1015D000F7FE06C081E0C81AD108E10880E8F80AE1
:1015E000C882D982EA82FB82C701B6019F77DF9168
:1015F000CF91FF90EF90DF90CF90BF90AF909F90F2
:101600008F9008958F929F92AF92BF92CF92DF9268
:10161000EF92FF92609100017091010180910201AF
:1016200090910301611571058105910521F464E232
:1016300079ED8BE597E02DE133EF41E050E00E943A
:101640005A0B49015A019B01AC01A7EAB1E40E947F
:10165000790B6B017C01ACEEB4EFA50194010E9403
:10166000870BC60ED71EE81EF91EF7FE06C081E0E6
:10167000C81AD108E10880E8F80AC0920001D092A7
:101680000101E0920201F0920301C701B6019F77C8
:10169000FF90EF90DF90CF90BF90AF909F908F9092
:1016A000089560930001709301018093020190936B
:1016B00003010895052E97FB1EF400940E94710B00
:1016C00057FD07D00E948C0B07FC03D04EF40C94FE
:1016D000710B50954095309521953F4F4F4F5F4F7F
:1016E000089590958095709561957F4F8F4F9F4F8E
:1016F00008950E94AE0BA59F900DB49F900DA49FDE
:10170000800D911D11240895B7FF0C94790B0E9450
:10171000790B821B930B0895A1E21A2EAA1BBB1B07
:10172000FD010DC0AA1FBB1FEE1FFF1FA217B307AD
:10173000E407F50720F0A21BB30BE40BF50B661FC3
:10174000771F881F991F1A9469F760957095809587
:1017500090959B01AC01BD01CF010895A29FB001FE
:10176000B39FC001A39F700D811D1124911DB29FD5
:10177000700D811D1124911D0895EE0FFF1F05901E
:10178000F491E02D09940E94AE0BB7FF0895821BDF
:10179000930B089510E0CFE8D0E004C0FE010E9452
:0E17A000BD0B2196C039D107C9F7F894FFCFD1
:1017AE00010000007EFF06000100000000EF0000B7
:1017BE000000FA035A0387036204B8039603AA03D0
:1017CE00000000009B045A032E059A04F7040D0531
:0617DE0082040D0A000068
:00000001FF
