:100000000C9464000C948C000C948C000C943706B7
:100010000C9437060C9437060C948C000C948305D2
:100020000C948C000C948C000C948C000C948C0020
:100030000C948C000C948C000C948C000C948C0010
:100040000C9439050C948C000C9405060C94DF0577
:100050000C948C000C948C000C948C000C948C00F0
:100060000C948C000C948C000200000000240027EB
:10007000002A00000000080002010000030407003D
:1000800000000000000000000000002300260029FE
:100090000000000000250028002B000404040404D4
:1000A0000404040202020202020303030303030125
:1000B00002040810204080010204081020010204FC
:1000C00008102000AF06F10911241FBECFEFD8E0C1
:1000D000DEBFCDBF11E0A0E0B1E0E0E4F4E102C09A
:1000E00005900D92AC35B107D9F722E0ACE5B1E04F
:1000F00001C01D92AD39B207E1F710E0C3E6D0E0D0
:1001000004C02197FE010E940D0AC236D107C9F72B
:100110000E9478070C94130A0C940000833081F03D
:1001200028F4813099F08230A9F008958730A9F041
:100130008830C9F08430B1F4809180008F7D03C095
:10014000809180008F7780938000089584B58F77A9
:1001500084BD089584B58F7DFBCF8091B0008F77EB
:100160008093B00008958091B0008F7DF9CF1F93E8
:10017000CF93DF93282F30E0F901ED58FF4F8491A2
:10018000F901E155FF4FD491F901E556FF4FC491B4
:10019000CC23A9F0162F81110E948E00EC2FF0E0E5
:1001A000EE0FFF1FEF56FF4FA591B4918FB7F89454
:1001B000EC91111108C0D095DE23DC938FBFDF9145
:1001C000CF911F910895DE2BF8CFCF93DF9390E06E
:1001D000FC01E155FF4F249185569F4FFC0184910E
:1001E0008823D1F090E0880F991FFC01E759FF4F59
:1001F000A591B491FC01EF56FF4FC591D4916111C7
:100200000EC09FB7F8948C91E22FE0958E238C93CB
:100210002881E223E8839FBFDF91CF9108958FB7B4
:10022000F894EC91E22BEC938FBFF6CF3FB7F894A4
:100230008091B3019091B401A091B501B091B60144
:1002400026B5A89B05C02F3F19F00196A11DB11D31
:100250003FBFBA2FA92F982F8827BC01CD01620F6D
:10026000711D811D911D42E0660F771F881F991F28
:100270004A95D1F708958F929F92AF92BF92CF92F5
:10028000DF92EF92FF926B017C010E9416014B01FD
:100290005C01C114D104E104F104B9F00E9416011B
:1002A000681979098A099B09683E7340810591059F
:1002B00080F321E0C21AD108E108F10888EE880E27
:1002C00083E0981EA11CB11CE4CFFF90EF90DF905B
:1002D000CF90BF90AF909F908F9008952F923F92B4
:1002E0004F925F926F927F928F929F92AF92BF9246
:1002F000CF92DF92EF92FF920F931F93CF93DF93F2
:100300006B017C018FB7F8948090B7019090B80191
:10031000A090B901B090BA018FBFC114D104E1041B
:10032000F10441F4C0905E02D0905F02E090600260
:10033000F0906102C1E046E0242E53E0352E68E0E3
:10034000462E72E0572EE7E06E2EFAE07F2E04E094
:10035000D9E015E08091580290915902DC01ED91AD
:10036000FC910084F185E02D0995892B09F4C3C027
:1003700060E070E0CB010E943B0120917602809109
:10038000580290915902DC01ED91FC910284F385B1
:10039000E02D21110BC00995809362028E37D1F6B2
:1003A000809176028F5F80937602D4CF09959091E9
:1003B0007602E92FF0E0E85AFD4F82879230B1F1E2
:1003C0009930D1F19130A1F58F3F91F110927602E1
:1003D000C093780210927B0210927A02C0937C0242
:1003E00010927D022FB7F8948091B7019091B801D7
:1003F000A091B901B091BA012FBF88199909AA0932
:10040000BB09C816D906EA06FB0608F0C1C010925F
:1004100076021092780210927B0210927A0281E0AA
:1004200080937C0210927D0280E06AC0863071F673
:100430009F5F909376028ECF8F3E41F6E0916502EA
:100440008091670290E04091680250E060916902FB
:1004500070E0762F662720916A02620F711D20914D
:1004600064022E0F3327331FF09166022F0F311DC8
:10047000280F391F240F351FF09163022F0F311DF4
:100480003195219531096217730709F09FCF1092BA
:100490007602E13419F410927D022DC0E0937902C6
:1004A000982F8827480F591F50937B0240937A0258
:1004B000EA53E63108F063C0F0E0EF59FD4F0C94C9
:1004C0000D0AA402AE0277027702BB029302B802C1
:1004D000BF02BB02BB02BB02BB02BB02BB02BB0230
:1004E000BB02BF02BB02BB02BB02BB02BB0210933A
:1004F0007802C0937C0280917C02882309F472CF39
:10050000DF91CF911F910F91FF90EF90DF90CF90EF
:10051000BF90AF909F908F907F906F905F904F9023
:100520003F902F90089540FF03C0D0937802E1CF11
:1005300041FF03C000937802DCCF43705527452B61
:10054000D1F270927802D5CF40FF03C0609278025A
:10055000D0CF41FFD0CF50927802CBCF40FF03C025
:1005600040927802C6CF41FFC6CF30927802C1CF09
:1005700020927802BECFBBE0B0937802BACFC0938E
:10058000780210927B0210927A02C0937C0283CF91
:1005900060E070E0CB010E943B01DCCE80936F02F3
:1005A000272F30E0709371026093720240916E02C7
:1005B00090916D02490F5527551F840F952F911D5E
:1005C00040917002840F911D820F931F680F792F45
:1005D000711D719561957109709373026093740236
:1005E000442379F080917D02882359F060E070E027
:1005F000CB010E943B0160E070E0CB010E946E01E4
:10060000F1CF8091580290915902DC01ED91FC915B
:100610000280F381E02D4AE050E06CE672E009953B
:100620002FB7F8948091B7019091B801A091B901CA
:10063000B091BA012FBF80935A0290935B02A093AE
:100640005C02B0935D028091700291E0811101C063
:1006500090E090937D02811106C06AE070E080E036
:1006600090E00C943B0108959091000189130BC018
:10067000E8E6F0E0E4919FEF90930001E13049F06B
:1006800028F0E23061F060E00C94B70010926E0048
:10069000FACF90916F009D7F90936F00F4CF90916F
:1006A00070009D7F9093700091E09093B0009091C6
:1006B000B100987F94609093B1001092B300E3CFA3
:1006C000AF92BF92CF92DF92EF92FF920F931F9360
:1006D000CF93DF936C017B018B01040F151FEB019E
:1006E0005E01AE18BF08C017D10759F06991D60155
:1006F000ED91FC910190F081E02DC6010995892BC7
:1007000079F7C501DF91CF911F910F91FF90EF9085
:10071000DF90CF90BF90AF900895FC01538D448D32
:10072000252F30E0842F90E0821B930B541710F09C
:10073000CF96089501970895FC01918D828D9817A9
:1007400061F0A28DAE0FBF2FB11D5D968C91928D81
:100750009F5F9F73928F90E008958FEF9FEF0895B2
:10076000FC01918D828D981731F0828DE80FF11D7B
:10077000858D90E008958FEF9FEF0895FC01918D96
:10078000228D892F90E0805C9F4F821B91098F738F
:10079000992708958BEB91E00E94BE0321E0892BFD
:1007A00009F420E0822F089580E090E0892B29F061
:1007B0000E94CA0381110C9400000895FC01A48DCD
:1007C000A80FB92FB11DA35ABF4F2C91848D90E073
:1007D00001968F739927848FA689B7892C93A08956
:1007E000B1898C91837080648C93938D848D9813E0
:1007F00006C00288F389E02D80818F7D8083089573
:10080000EF92FF920F931F93CF93DF93EC0181E060
:10081000888F9B8D8C8D98131AC0E889F989808107
:1008200085FF15C09FB7F894EE89FF896083E8893A
:10083000F98980818370806480839FBF81E090E02C
:10084000DF91CF911F910F91FF90EF900895F62EB9
:100850000B8D10E00F5F1F4F0F731127E02E8C8D53
:100860008E110CC00FB607FCFACFE889F989808198
:1008700085FFF5CFCE010E94DE03F1CFEB8DEC0FAB
:10088000FD2FF11DE35AFF4FF0829FB7F8940B8FB5
:10089000EA89FB8980818062CFCFCF93DF93EC011F
:1008A000888D8823B9F0AA89BB89E889F9898C9158
:1008B00085FD03C0808186FD0DC00FB607FCF7CF14
:1008C0008C9185FFF2CF808185FFEDCFCE010E9414
:1008D000DE03E9CFDF91CF91089520919E01309101
:1008E0009F012817390771F490919C0180919D0117
:1008F000981741F0E0919C01F0E0E45AFE4F8081AE
:1009000090E008958FEF9FEF08950895EF92FF9282
:100910000F931F93CF93DF93DC015C96ED90FC90D7
:100920005D97E114F10479F481E090E013969C93D3
:100930008E93129790E080E0DF91CF911F910F91FD
:10094000FF90EF9008955196ED91FC91529750963B
:100950008C915097982F90950FB75E962C915E973B
:10096000122F127021FD6095F8942081112319F146
:10097000282B2083E7012197F1F728E0462F50E04C
:10098000308160FF1AC0382B3083E7012197F1F7DF
:10099000BA0175956795215089F7112381F08081FF
:1009A000892380830FBF5C968D919C910197F1F70D
:1009B00081E090E0C1CF2923DCCF3923E5CF9081BE
:1009C000892BEFCF20919E0130919F012817390785
:1009D00061F480919D0120919C0190E0805C9F4F8B
:1009E000821B91098F739927089590E080E0089504
:1009F00020919E0130919F0128173907B9F49091F9
:100A00009C0180919D01981789F0E0919C01F0E094
:100A1000E45AFE4F808120919C0130E02F5F3F4FD0
:100A20002F73332720939C0190E008958FEF9FEF61
:100A3000089590E080E00895CF93DF93FC0101904A
:100A40000020E9F73197AF01481B590BBC018BEB34
:100A500091E00E946003EC0142E050E06FE271E03F
:100A60008BEB91E00E9460038C0F9D1FDF91CF9173
:100A700008951F920F920FB60F9211242F933F9358
:100A80008F939F93AF93BF938091B7019091B801DB
:100A9000A091B901B091BA013091B20123E0230FC6
:100AA0002D3758F50196A11DB11D2093B2018093F9
:100AB000B7019093B801A093B901B093BA018091A6
:100AC000B3019091B401A091B501B091B601019626
:100AD000A11DB11D8093B3019093B401A093B50102
:100AE000B093B601BF91AF919F918F913F912F919C
:100AF0000F900FBE0F901F90189526E8230F0296B7
:100B0000A11DB11DD2CF1F920F920FB60F921124CB
:100B10002F933F934F935F936F937F938F939F9305
:100B2000AF93BF93EF93FF938091A5019091A6019E
:100B3000A091A701B091A801892B8A2B8B2BD1F111
:100B40009091A001E091A101F091A20180818927FB
:100B500080838091A5019091A601A091A701B091F9
:100B6000A801181619061A061B069CF48091A50107
:100B70009091A601A091A701B091A8010197A109A8
:100B8000B1098093A5019093A601A093A701B0930A
:100B9000A801FF91EF91BF91AF919F918F917F91AC
:100BA0006F915F914F913F912F910F900FBE0F90DA
:100BB0001F901895809100010E943403EACF1F9284
:100BC0000F920FB60F9211242F933F934F935F9381
:100BD0006F937F938F939F93AF93BF93EF93FF9305
:100BE0008BEB91E00E94DE03FF91EF91BF91AF91FB
:100BF0009F918F917F916F915F914F913F912F9135
:100C00000F900FBE0F901F9018951F920F920FB666
:100C10000F9211242F938F939F93EF93FF93E09163
:100C2000CB01F091CC018081E091D101F091D20112
:100C300082FD1BC090818091D4018F5F8F732091C2
:100C4000D501821741F0E091D401F0E0E554FE4F68
:100C5000958F8093D401FF91EF919F918F912F9168
:100C60000F900FBE0F901F9018958081F4CF1F92A8
:100C70000F920FB60F9211242F933F934F935F93D0
:100C80006F937F938F939F93AF93BF93EF93FF9354
:100C9000E0919E01F0919F01309749F0A685B785BC
:100CA0008585968D91FF14C09C918923A1F4FF91B5
:100CB000EF91BF91AF919F918F917F916F915F91D4
:100CC0004F913F912F910F900FBE0F901F9018954D
:100CD0009C91892361F7A389B4899C91858980952A
:100CE00089238C93868997890197F1F7608D718D9F
:100CF000A685B785558538E020E0CB010197F1F74F
:100D0000822F90E095958795282F4C91452309F0E7
:100D10002068315091F7868D81FD209580919D014D
:100D200090E001968F73992730919C01381799F0C4
:100D3000A0919D01B0E0A45ABE4F2C9380939D01D9
:100D4000828D938D0197F1F7A389B4898C91958950
:100D5000892B8C93ACCF868D8160868FF1CF1092DA
:100D6000BE011092BD0188EE93E0A0E0B0E0809358
:100D7000BF019093C001A093C101B093C2012FE0C5
:100D800031E03093BC012093BB0125EC30E030937F
:100D9000C8012093C70124EC30E03093CA012093AE
:100DA000C90120EC30E03093CC012093CB0121EC41
:100DB00030E03093CE012093CD0122EC30E030932F
:100DC000D0012093CF0126EC30E03093D201209364
:100DD000D1011092D4011092D5011092D601109237
:100DE000D701109281021092800280938202909328
:100DF0008302A0938402B093850281E291E09093F4
:100E00007F0280937E0210929502109294021092BB
:100E100097021092960210929902109298021092E4
:100E20009B0210929A0260919C026E7F6D7F60938C
:100E30009C026695617081E0682782E00E94B7009D
:100E400061E082E00E94E500E1EBF0E0E491E093F4
:100E50008E02EDE9F0E0E491F0E0EE0FFF1FEF56B7
:100E6000FF4F859194919093900280938F0260E060
:100E700083E00E94E50080919C0281FD04C061E056
:100E800083E00E94B70083E080938A02E2EBF0E007
:100E9000E491E0938B02EEE9F0E0E491F0E0EE0FF4
:100EA000FF1FE957FF4F8591949190938D02809396
:100EB0008C0284EF91E0A0E0B0E080935E0290931A
:100EC0005F02A0936002B09361028AE0E1E0F1E08A
:100ED000ACE6B2E001900D928A95E1F710927602AD
:100EE00082E08093770210927C0210927D02089536
:100EF000789484B5826084BD84B5816084BD85B5F5
:100F0000826085BD85B5816085BD80916E00816000
:100F100080936E00109281008091810082608093A6
:100F200081008091810081608093810080918000A8
:100F30008160809380008091B10084608093B100D3
:100F40008091B00081608093B00080917A008460CD
:100F500080937A0080917A00826080937A008091F9
:100F60007A00816080937A0080917A008068809313
:100F70007A001092C10060E085E00E94E50061E027
:100F80008EE00E94E50061E086E00E94E500E091CD
:100F9000CB01F091CC0182E08083E091C701F09118
:100FA000C8011082E091C901F091CA018FEC8083E1
:100FB0001092D301E091CF01F091D00186E08083BF
:100FC000E091CD01F091CE01808180618083E0913C
:100FD000CD01F091CE01808188608083E091CD01C8
:100FE000F091CE01808180688083E091CD01F09105
:100FF000CE0180818F7D8083109299021092980299
:1010000010929702109296021092950210929402FA
:101010008DE991E090939B0280939A0290918A02CD
:10102000963108F047C02DEB30E0309395022093C5
:1010300094022BE931E030939702209396022CE240
:1010400031E030939902209398022091680084E067
:10105000983048F031E09E3008F430E081E001C083
:10106000880F3A95EAF7822B809368002DE630E0EE
:10107000983050F02BE630E09E3030F02CE630E037
:10108000963110F030E020E03093920220939102EC
:10109000292F30E0983008F0C5C081E001C0880FEA
:1010A0009A95EAF78093930280919A0290919B021D
:1010B0000197F1F78091980290919902892B49F15B
:1010C000E0919E01F0919F0182E0EE37F80709F16F
:1010D000309739F0A389B4899C91858980958923BB
:1010E0008C9380919C028E7F80939C0210929D0134
:1010F00010929C018EE792E090939F0180939E0155
:10110000E0919102F0919202808190919302892B5B
:1011100080838EE792E0909359028093580281E099
:101120008093700270E060E08CE00E94CE0260ED7F
:1011300077E080E090E00E946E0168EC70E080E073
:1011400090E00E943B0110927C02809178028430F2
:1011500009F475C0893009F472C082E391E00E94FD
:101160001C056FE3C62E6FE1D62E78E6E72E70E001
:10117000F72EE1EA4E2EE0E05E2E05EB10E088242B
:101180008A94982C540154EB252E50E0352E40E0E3
:10119000642E40E0742EE8E7F0E08491F101C49100
:1011A000E0EAF0E0D491DD2309F412C181110E943C
:1011B0008E00ED2FF0E0EE0FFF1FE957FF4FA591D6
:1011C000B4918C918C2309F403C161E08EE00E94FC
:1011D000B700809100018630D1F5F701C491C7FDB9
:1011E000D1C061E086E00E94E500CC2309F49DC0F7
:1011F000C23009F0AEC08091B100887F83608093D7
:10120000B10089EF8093B3008092A5019092A6016E
:10121000A092A701B092A801809170008260809393
:101220007000B0C09E3040F42850310981E001C008
:10123000880F2A95EAF736CF2E503109F7CF64E1AF
:1012400070E086E00E94CE028AE491E088CF8F3F72
:1012500009F098C086E080930001F701C491CF3F68
:1012600009F490C0C13019F150F0C23009F43CC00B
:10127000C7FD88C061E086E00E94E500B9CF14BCDC
:1012800015BC84B5826084BD85B5816085BDF201E1
:101290008491E82FF0E0EE0FFF1FEF56FF4F85918E
:1012A0009491F80184918093A401C0E09ACF1092A8
:1012B000800010928100809181008860809381007D
:1012C00080918100816080938100F2018491E82FF8
:1012D000F0E0EE0FFF1FEF56FF4F85919491F8015C
:1012E00084918093A3017DCF1092B0001092B10041
:1012F0008091B00082608093B0008091B1008160E5
:101300008093B100F2018491E82FF0E0EE0FFF1F0F
:10131000EF56FF4F859194919093A2018093A10184
:10132000F80184918093A0015CCF85B5887F8360AC
:1013300085BD8CE787BD8092AD019092AE01A092F1
:10134000AF01B092B00180916E00826080936E0018
:1013500019C0C130A9F580918100887F8160809398
:101360008100D0928900C09288008092A901909259
:10137000AA01A092AB01B092AC0180916F00826093
:1013800080936F008091B101811106C061E070E02F
:1013900083E00E94CE0281E08093B1016AE070E0B8
:1013A00080E090E00E943B016114710409F4F3CEE7
:1013B0000E94CA03882309F4EACE0E940000E3CE0B
:1013C000C23021F0C111DECF8FE3B4CF8FE31ACF4B
:1013D00060E08EE00E94B70086E00E94340380E067
:1013E000DBCF81E291E090937F0280937E02809137
:1013F0009E0190919F018E57924071F4E09191026D
:10140000F09192029081809193028095892380834C
:1014100010929F0110929E010895EE0FFF1F0590FC
:10142000F491E02D099410E0C3E6D0E004C0FE0181
:101430000E940D0A2196C436D107C9F7F894FFCF50
:10144000FF7EFF06000100000000EF00000000002A
:101450000460038D034D04BE039C03B00300000031
:10146000008604600319058504E204F8046D040D88
:101470000A004D503320706C61796572206E6F7474
:10148000206465746563746564004D503320706C2E
:0C1490006179657220726561647900006A
:00000001FF
